:100000000C9441040C945E040C945E040C945E0405
:100010000C945E040C945E040C945E040C945E04D8
:100020000C945E040C945E040C945E040C948C148A
:100030000C945E040C945E040C945E040C945E04B8
:100040000C945E040C945E040C945E040C945E04A8
:100050000C945E040C945E040C945E040C945E0498
:100060000C945E040C945E040D0A557365722D4168
:1000700067656E743A206D656761640D0A4163635C
:100080006570743A20746578742F68746D6C0D0A0D
:100090000D0A0020485454502F312E310D0A486F5C
:1000A00073743A20004745542000000108000604FC
:1000B00000014500008200004000203C2F613E000E
:1000C000445300414443004E4300202D20003E5045
:1000D000002564003C62723E3C6120687265663DAA
:1000E0002F002F3F63663D313E436F6E6669673C6C
:1000F0002F613E3C62723E2D2D20506F7274732032
:100100002D2D004D656761442D41724475626E6905
:100110006E6F202866773A20332E3537293C62727D
:100120003E3C6120687265663D2F00446F6E65003D
:10013000223E3C62723E737276206C6F6F70203C80
:10014000696E70757420747970653D636865636B62
:10015000626F78206E616D653D736C2076616C75A1
:10016000653D3100323E4D656761642D4944203C58
:10017000696E707574206E616D653D6D6469642093
:1001800076616C75653D2200536372697074203C22
:10019000696E707574206E616D653D736374207651
:1001A000616C75653D220025642E25642E25642E24
:1001B00025643A25753E3C62723E003E3C62723ECA
:1001C000535256203C696E707574206E616D653DAA
:1001D0007369702076616C75653D004757203C69F6
:1001E0006E707574206E616D653D67772076616C09
:1001F00075653D25642E25642E25642E25640050EA
:100200007764203C696E707574206E616D653D7019
:1002100077642076616C75653D22004950203C6909
:100220006E707574206E616D653D656970207661D4
:100230006C75653D25642E25642E25642E2564008D
:10024000313E0063662076616C75653D002F3E008F
:100250002F3F63663D313E436F6E6669673C2F6199
:100260003E3C62723E002F3F63663D323E4D656705
:1002700061642D49443C2F613E3C62723E003E4227
:1002800061636B3C2F613E207C203C61206872657D
:10029000663D2F003E4261636B3C2F613E3C6272C3
:1002A0003E526573746172746564002A003B003EBF
:1002B00069423C2F73656C6563743E003E31573C68
:1002C0006F7074696F6E2076616C75653D34003EA9
:1002D0004448543C6F7074696F6E2076616C75652C
:1002E0003D33003C62723E53656E203C73656C6525
:1002F0006374206E616D653D643E3C6F7074696F20
:100300006E2076616C75653D320020636865636BB5
:1003100065643E203C696E707574206E616D653D4C
:100320006D322073697A653D332076616C75653D69
:10033000003C62723E536D6F6F7468203C696E7052
:10034000757420747970653D636865636B626F785E
:10035000206E616D653D6D6973632076616C7565B6
:100360003D31003E50574D3C2F73656C6563743EC4
:10037000003E53573C6F7074696F6E2076616C75E8
:10038000653D31003C62723E4D6F6465203C736593
:100390006C656374206E616D653D6D3E3C6F70747D
:1003A000696F6E2076616C75653D30003E313C2F83
:1003B00073656C6563743E003E303C6F7074696FAA
:1003C0006E2076616C75653D31003C73656C6563CC
:1003D00074206E616D653D643E3C6F7074696F6E34
:1003E0002076616C75653D30003C696E70757420D7
:1003F0006E616D653D642073697A653D3320766179
:100400006C75653D003C62723E44656620003E3C72
:1004100062723E526177203C696E70757420747907
:1004200070653D636865636B626F78206E616D65B2
:100430003D642076616C75653D31003E523C2F7302
:10044000656C6563743E203C696E707574207479C8
:1004500070653D636865636B626F78206E616D6582
:100460003D6D6973632076616C75653D31003E506A
:1004700026523C6F7074696F6E2076616C75653DB5
:1004800032003E503C6F7074696F6E2076616C75FF
:10049000653D31003C62723E4D6F6465203C736582
:1004A0006C656374206E616D653D6D3E3C6F70746C
:1004B000696F6E2076616C75653D3000223E203C90
:1004C000696E70757420747970653D636865636BDF
:1004D000626F78206E616D653D6E61662076616C3D
:1004E00075653D31002F003A25750025642E256481
:1004F0002E25642E256400223E3C62723E4E6574B9
:10050000203C696E707574206E616D653D65746820
:100510002076616C75653D22003C62723E416374D9
:10052000203C696E707574206E616D653D65636D0C
:10053000642076616C75653D22003E3C62723E48E7
:100540007374203C696E707574206E616D653D68D2
:1005500073742076616C75653D003E3C3E3C2F73A4
:10056000656C6563743E3C62723E56616C203C690A
:100570006E707574206E616D653D6D697363207674
:10058000616C75653D003E3C3C6F7074696F6E2018
:1005900076616C75653D33003E3E3C6F7074696FEB
:1005A0006E2076616C75653D32003E4E3C6F707416
:1005B000696F6E2076616C75653D31004D6F6465C5
:1005C000203C73656C656374206E616D653D6D3EA6
:1005D0003C6F7074696F6E2076616C75653D30009C
:1005E0003C2F73656C6563743E003E414443003CA0
:1005F0006F7074696F6E2076616C75653D32003E78
:100600004453656E003E4F75743C6F7074696F6E35
:100610002076616C75653D33003E496E3C6F7074A9
:10062000696F6E2076616C75653D31003E4E433CCE
:100630006F7074696F6E2076616C75653D30005423
:10064000797065203C73656C656374206E616D65BF
:100650003D7074793E3C6F7074696F6E2076616C8A
:1006600075653D32353500706E2076616C75653D7F
:10067000002F3E002F002F00683A002F003C6272CE
:100680003E743A003A303E3C68313E4F46463C2F7D
:1006900068313E3C2F613E3C62723E003A313E3C46
:1006A00068313E4F4E3C2F68313E3C2F613E203C2E
:1006B0006120687265663D2F002F003E203C696E08
:1006C00070757420747970653D7375626D697420FE
:1006D00076616C75653D6368616E67653E3C2F664B
:1006E0006F726D3E003E50574D203C696E707574C0
:1006F000206E616D653D70776D2073697A653D335D
:100700002076616C75653D0070742076616C75654E
:100710003D002F3E003C62723E3C666F726D20735E
:1007200074796C653D646973706C61793A696E6C5B
:10073000696E6520616374696F6E3D2F002F0050F4
:100740000041003E4261636B3C2F613E3C62723E61
:100750000026616C6C3D006D6469643D003F00489B
:100760005454502F312E302034303120556E617565
:1007700074686F72697A65640D0A0D0A556E617549
:1007800074686F72697A6564005472792068747451
:10079000703A2F2F69702F707764005345545200C0
:1007A00053455451004D44574D0053524348002F78
:1007B000002F002F002F00485454502F312E30208E
:1007C000323030204F4B0D0A436F6E74656E742DBE
:1007D000547970653A20746578742F68746D6C0D67
:1007E0000A0D0A0026636D643D002F3F70743D00C2
:1007F0004F4646004F4E00494E004F555400223E92
:100800003C62723E003E3C62723E003C62723E00C0
:100810003C6120687265663D2F003E00206368657C
:10082000636B6564003C696E7075742074797065E3
:100830003D68696464656E206E616D653D003C6273
:10084000723E3C696E70757420747970653D737585
:10085000626D69742076616C75653D536176653EA5
:100860003C2F666F726D3E003C666F726D20616357
:1008700074696F6E3D2F002073656C6563746564E9
:10088000000011241FBECFEFD8E0DEBFCDBF12E0C5
:10089000A0E0B1E0E0EBF0E702C005900D92A036D9
:1008A000B107D9F727E0A0E6B2E001C01D92A53557
:1008B000B207E1F70E9476160C9456380C940000AB
:1008C0002A98962F9F71892B8EBD0DB407FEFDCF00
:1008D0001EBC0DB407FEFDCF67FD03C02A9A8EB57E
:1008E00008951EBC0DB407FEFDCFF8CF2A986F7196
:1008F000862B8EBD0DB407FEFDCF4EBD0DB407FE99
:10090000FDCF2A9A0895FB012A982AE32EBD0DB443
:1009100007FEFDCF8E0F9F1FE817F90739F01EBCA9
:100920000DB407FEFDCF2EB52193F6CF10822A9A83
:1009300008952A982AE72EBD0DB407FEFDCF860F35
:10094000971F6817790741F0FB012191BF012EBD68
:100950000DB407FEFDCFF5CF2A9A08951F93CF93CC
:10096000DF93182F1076C12FD0E08091650290E0C0
:10097000C817D90789F043E06FE180EA0E94760446
:10098000AE0185E0559547958A95E1F76FE180E8DE
:100990000E94760410936502DF91CF911F91089514
:1009A000CF93C82F0E94AE046C2F80E0CF910C949F
:1009B0006004CF93DF93C82FD62F0E94AE044D2F33
:1009C0006C2F80E4DF91CF910C947604682F84ED36
:1009D0000E94D90461E082ED0E94D90488E28A95E0
:1009E000F1F78AEE0E94D00480FDFBCF60E082ED3B
:1009F0000E94D90489ED0E94D00490E00895CF931D
:100A0000DF93D62FC72F682F84ED0E94D9046D2F56
:100A100086ED0E94D9046C2F87ED0E94D904C8E2AC
:100A20008AEE0E94D00480FF04C08C2F8A95F1F7D3
:100A3000F7CFDF91CF910895682F677085E70C9409
:100A4000D904CF93DF93EC01229A2A9A84B1886269
:100A500084B9249A2B9A2D9A80E58CBD8DB581603E
:100A60008DBD4FEF60E08FEF0E94760480E090E054
:100A70000197F1F7109264021092630260E088E03F
:100A80000E94D90460E089E00E94D90460E08CE013
:100A90000E94D90460E08DE00E94D9046FEF8AE0E3
:100AA0000E94D90469E18BE00E94D90460E084E0EF
:100AB0000E94D9046AE185E00E94D9046FEF86E0C4
:100AC0000E94D9046FE187E00E94D90460EB88E3BB
:100AD0000E94D9046FE388E20E94D90460E389E2AE
:100AE0000E94D90469EF80E30E94D90467EF81E393
:100AF0000E94D9046DE080EC0E94D90460E081EC92
:100B00000E94D90442E362EC80E80E94760462E12C
:100B100086EC0E94D9046CE087EC0E94D90462E163
:100B200084EC0E94D9046CED8AEC0E94D90465E043
:100B30008BEC0E94D904688184EE0E94D9046981FB
:100B400085EE0E94D9046A8182EE0E94D9046B81ED
:100B500083EE0E94D9046C8180EE0E94D9046D81DD
:100B600081EE0E94D90460E071E080E10E94FF0400
:100B70008FE10E94AE0444E06FE180E8DF91CF9105
:100B80000C94760488E30E94D004682F616088E3A7
:100B90000C94D90481E10E94E60421E0892B09F438
:100BA00020E0822F08950F931F93CF93DF93EC01E2
:100BB0008B016FE180E00E94600483FF10C08CE134
:100BC0000E94D00481FFF5CF40E86FE180E80E94E9
:100BD000760440E86FE180EA0E947604EACF60E0A4
:100BE00082E00E94D9046AE183E00E94D9046C2F5C
:100BF00086E00E94D904CE01965E692F87E00E94AC
:100C0000D90440E060E08AE70E947604B801CE0192
:100C10000E94990448E06FE180E8DF91CF911F9135
:100C20000F910C9476049F92AF92BF92CF92DF9275
:100C3000EF92FF920F931F93CF93DF936C017B0191
:100C400089E30E94D004882309F45DC060916302A7
:100C5000C091640280E00E94D9046C2F81E00E9460
:100C6000D90460E08AE30E946004082F60E08AE310
:100C70000E946004602F70E08B01182B10936402B7
:100C80000093630260E08AE30E946004C82F60E082
:100C90008AE30E946004982E60E08AE30E94600468
:100CA000A82E60E08AE30E946004A7FE0EC0C60181
:100CB0000197D0E0D92924978C179D0708F4EC01FF
:100CC000B701CE010E94830402C0C0E0D0E07801E9
:100CD00081E0E81AF108E1148AE1F80620F081E0E9
:100CE0008093620209C06FEF600F8CE00E94D9040C
:100CF0006F2D8DE00E94D90440E46EE180E80E94EF
:100D00007604CE0102C080E090E0DF91CF911F9188
:100D10000F91FF90EF90DF90CF90BF90AF909F909A
:100D200008956F927F929F92AF92BF92CF92DF927F
:100D3000EF92FF920F931F93CF93DF9300D000D0D9
:100D40001F92CDB7DEB7FE01319625E0DF011D927F
:100D50002A95E9F7A091C606B091C7061C9121E03B
:100D600030E0A9010090970202C0440F551F0A9479
:100D7000E2F7412B4C93A091C006B091C1061C91A3
:100D8000A9010090970202C0440F551F0A94E2F790
:100D9000412B4C93BFE840ED53E0B15040405040F0
:100DA000E1F700C00000A091C006B091C1064C91CF
:100DB0000090970202C0220F331F0A94E2F7209599
:100DC00024232C93AAE1B6E01197F1F700001092CA
:100DD000980220919802211105C0B4E0BA95F1F76C
:100DE0000000F7CFA091C006B091C1061C9121E090
:100DF00030E0A9010090970202C0440F551F0A94E9
:100E0000E2F7412B4C93A091C606B091C7064C91D6
:100E10000090970202C0220F331F0A94E2F7209538
:100E200024232C9326EA2A95F1F700C0A0913D07D0
:100E3000B0913E072C9130E000903C0702C0359500
:100E400027950A94E2F720FF02C08FEFC5C0A9EFF3
:100E5000B0E01197F1F700C00000A0913D07B091FC
:100E60003E072C9130E00090970202C035952795FF
:100E70000A94E2F720FFE9CFA9EFB0E01197F1F76C
:100E800000C000003F015E01B6E0AB0EB11C01E006
:100E900010E0A7E0B0E0912CC0903D07D0903E0755
:100EA00078010090970202C0EE0CFF1C0A94E2F752
:100EB00049EC50E0F601208130E02E213F21232B28
:100EC00021F441505109B1F7C0CFFDE7FA95F1F790
:100ED000C0903D07D0903E07F601208140919702D7
:100EE00030E0042E02C0359527950A94E2F720FFE2
:100EF00007C098010A2E01C0220F0A94EAF7922A2D
:100F0000980102C0220F331F4A95E2F7A90129EC8C
:100F1000E22EF12CF601208130E024233523232B0F
:100F200029F031E0E31AF108A9F78FCF119708F003
:100F3000B3CFD3019D923D01AA16BB0609F0A9CFFC
:100F4000E091C606F091C706208140954223408378
:100F5000E091C006F091C106408121E030E00090B0
:100F6000970202C0220F331F0A94E2F7242B20833A
:100F700049815A815427452754272B813C813227A8
:100F800023273227F981EA81EF0FFB81EF0FFC81E4
:100F9000EF0FFD81EF1359CF37FF0BC03F77A6EF5F
:100FA000BFEF2A9FF0012B9FF00D3A9FF00D112407
:100FB00006C0AAE0A29FF001A39FF00D1124DC015E
:100FC000ED93FC932AE0249FC001259F900D1124EE
:100FD000FB019183808380E00F900F900F900F9022
:100FE0000F90DF91CF911F910F91FF90EF90DF90C5
:100FF000CF90BF90AF909F907F906F9008950C948A
:1010000091069F92AF92BF92CF92DF92EF92FF92A2
:101010000F931F93CF93DF937A0169019090780229
:10102000981671F0E0917602F09177022FEF40E090
:1010300050E060E070E084EF91E0099580E05BC0F3
:10104000611158C02D30310508F454C0009176026A
:10105000109177020115110509F44CC0A0906E02A1
:10106000B0906F02E501C40FD51F888590E00E9403
:10107000DD33892B21F1298530E0205331092A30D5
:101080003105E8F48B8590E0AC01405351094A30BA
:101090005105A8F4EAE0E29FB001E39F700D11242E
:1010A0009A85292F30E020533109260F371FE29F00
:1010B000C001E39F900D1124840F951F02C080E0B2
:1010C00090E0E7E1F1E02FEF3FE0492D50E047509D
:1010D0005140AFEF629170E05A01AE0EBF1E6A152B
:1010E0007B0511F4232FA0833150A0F7A601B7018F
:1010F000F801099581E0DF91CF911F910F91FF9049
:10110000EF90DF90CF90BF90AF909F9008950F9396
:101110001F93CF93DF93FC019B01413051F4AB014E
:101120004850510960E070E04F5E5F4F6F4F7F4F56
:101130000FC0423051F4AB014850510960E070E0FB
:101140004A5F5F4F6F4F7F4F03C040E050E0BA01EE
:10115000C901EF018230910558F0A991B991BA27E0
:10116000AB27BA274A0F5B1F611D711D0297F2CF93
:10117000C9018E7FE80FF91F2817390761F08081B8
:1011800090E0A0E0B0E0BA2FA92F982F8827480F51
:10119000591F6A1F7B1F8B01222733270115110559
:1011A0002105310539F066277727400F511F621F4F
:1011B000731FF1CFCA0180959095DF91CF911F9158
:1011C0000F910895FC01892B39F096E0A1E9B2E076
:1011D00001900D929A95E1F70895009721F4611519
:1011E000710559F40895FC01ADE8B2E081918D9349
:1011F00082E0A139B807D1F7F2CFFB01A1E0B1E05D
:1012000081918D9381E0A530B807D1F70895DC0175
:101210005A96FB014E963D912191321305C0A817B5
:10122000B907C9F781E0089580E008956932710532
:10123000A0F0FC012485283081F42585263069F44E
:10124000B696ADE8B2E08A9631912D91321305C081
:10125000E817F907C9F781E0089580E00895CF9372
:10126000DF93FC016A327105B8F084858830A1F4FF
:101270008585811111C09685953479F4DF015E96DC
:10128000CDE8D2E0B2962D919991291306C0AE1700
:10129000BF07C9F781E001C080E0DF91CF910895D9
:1012A000FC01A1E9B2E00696268121932D912583C8
:1012B000E817F907C9F70895CF93DF93EC01188E6B
:1012C000198E80E48C8B1D8A8E8B40E064E170E087
:1012D000CE010E960E948708988F898FDF91CF915B
:1012E0000895ADE8B2E0FC017A969C01225E3F4F82
:1012F000408144834D914193E217F307C9F70C9461
:101300005C09FC01BA9686962291620F711D2481B8
:101310006483442311F0208301C01082672F772754
:101320008E179F0789F70895CF93DF93EC018CA167
:101330009AA19CA38AA38DA19BA19DA38BA3CE015F
:101340000E9481091AAA1BAA80E58EA7DF91CF917E
:101350000895CF93DF93EC010E9450091C8A82E02C
:101360008D8B81E992E0AE014A5E5F4FFE017C9673
:10137000DA012C911A962C93DC012D91CD01DA0122
:101380002D93AD01AE17BF0799F7ADE8B2E0CE01DE
:101390008096208122872D912193E817F907C9F7BC
:1013A000BE018AE290E0DF91CF910C94D3050F93B8
:1013B0001F93CF93DF93EC018B010E945009CE0164
:1013C0000E9471091AA28CA1883F18F09DA19F5F0D
:1013D0009DA3885F8CA3BE01C801DF91CF911F91AF
:1013E0000F910C94D305FC012089318932272327E2
:1013F00032272451310986A582958F70A90164E0B6
:10140000869F401951091124CA0157FF02C080E08C
:1014100090E008959C01FA019491992399F0F901C3
:10142000E60FF71F96AB6C3E82E0780710F46F5F13
:101430007F4F6C3EE2E07E0711F46BEE72E04F5F8F
:101440005F4FE9CFCB010895FA01222371F031916A
:10145000DC01A60FB71FD6963C936C3E32E07307B3
:1014600010F46F5F7F4F2150F0CFCB010895FA0148
:1014700001900020E9F731979F01241B350B0C9454
:10148000240ACF93DF9390917802981331C0C091D2
:101490006E02D0916F0245EA50E060E070E0CE014C
:1014A0000E940A0A4091740250917502BC01CE015B
:1014B0000E940A0A4091720250917302BC01CE014F
:1014C0000E94370A43E950E0BC01CE010E940A0A9B
:1014D0004091700250917102BC01CE010E94370A06
:1014E00048E650E0BC01CE01DF91CF910C940A0A8E
:1014F00080E090E0DF91CF910895FF920F931F93CA
:10150000CF93DF93EC018B01F42E0E9450098F2DB5
:1015100080618FA784E0F81629F00115110511F4F8
:1015200001E010E041E0B801CE010E949409188A60
:1015300088E2898BCE010E94710984E088AB19AAE8
:1015400042E06CE170E0CE014A960E9487089AABB7
:101550008BABBE0186E390E0DF91CF911F910F919D
:10156000FF900C94D3050F931F93CF93DF93EC015F
:101570008B01CB018896988B898BCE010E945C09E8
:101580001AAA1BAAB801645E7F4F42E0CE014A96B8
:101590000E9487089AAB8BABBE01C801C696DF914B
:1015A000CF911F910F910C94D305CF93DF93EC0152
:1015B0000E945009188A8CE2898BCE010E94710921
:1015C00082E18FA740E061E070E0CE010E949409C3
:1015D0001EA21FA28091180188A719A68D5F809373
:1015E000180182E08EAB84E08FAB85E088AF19AE46
:1015F00080E68EA78AE088AB19AA42E060E270E03C
:10160000CE014A960E9487089AAB8BABBE018AE353
:1016100090E0DF91CF910C94D3050F931F93CF935C
:10162000DF93EC018B01609166027091670240E0EC
:101630000E947D0A89E18FA7B801CE01DF91CF9189
:101640001F910F910C94B30A640F751F461757072B
:1016500041F0FA012491FC012193CF014F5F5F4FCC
:10166000F5CF0895AF92BF92CF92DF92EF92FF92A3
:101670000F931F93CF93DF93EC01F62EE72E5A01C1
:10168000D22EC32EFC0141E952E00696D8012D91DD
:101690008D012193DA012D91AD012583E817F9071A
:1016A000A9F788E08C871D8642EB50E069E070E086
:1016B000CE010E960E94240B809100018B8B8F5FD0
:1016C00080930001188A81E18F8BA501ADE8B2E01B
:1016D000CE014A96FA012191AF01FC0124832D919C
:1016E0002193CF01F2E0A139BF07A1F7CCA2DDA27F
:1016F000EAA2FBA21EA218A619A6DF91CF911F9104
:101700000F91FF90EF90DF90CF90BF90AF90089532
:101710000F931F93CF93DF93EC018B01CB014C967A
:10172000898B988BCE010E945C09C80108968FA313
:101730009EA3B801605F7F4F41E0CE014A960E94B0
:10174000870889A798A7BE01C8018A96DF91CF9123
:101750001F910F910C94D305EF92FF920F931F935B
:10176000CF93DF9320918D02222309F448C0FC011E
:1017700021E9E22E22E0F22E9C012A5F3F4FD701A1
:101780005FEF51934D914583E217F307D1F78B013A
:10179000EC0188E08C8786E08D874AEA50E068E0BB
:1017A00070E0CE010E960E94240BDE015696AE012B
:1017B000445E5F4FF70181917F018D9319961C92D2
:1017C00019974A175B07B1F7D8018DE892E02D9180
:1017D000FA012287FC012191CF01FA012193AF0187
:1017E000F2E081399F0799F7BE018AE290E0DF912C
:1017F000CF911F910F91FF90EF900C94D305DF9143
:10180000CF911F910F91FF90EF90089581E09091FB
:101810006902923009F480E008955093BF06409326
:10182000BE0621E02093690260936802EAE6F2E0D6
:10183000DC012D91CD012193B2E0EE36FB07C1F71B
:101840000895DF92EF92FF920F931F93CF93DF9350
:10185000EC01F62EE42ED52E40E852E0DC0181E9C1
:1018600092E0FA012191AF012D93FC012191CF016A
:1018700015962C931597F2E046385F0791F788E0AC
:101880008C871D8642EB50E069E070E0CE010E9639
:101890000E94240B8CE2898B809100018B8B8F5FDF
:1018A0008093000186E08F8B46E852E08DE892E05D
:1018B0008E01065E1F4FD801FA012191AF011496E7
:1018C0002C931497FC012191CF012D93F2E04A381B
:1018D0005F0791F7CE010E945C09DCA2EDA28BE0CC
:1018E0008AA3FBA2FE01B696CE018E961192E8174E
:1018F000F907E1F78091180188A78D5F809318019F
:1019000080E68EA792E09FA783E088AB19AA1AAA67
:101910001BAA1CAA1DAA9EAB94E09FAB88AF86E1D0
:1019200089AF42E060E270E0C8010E9487089AAB8C
:101930008BABBE018AE390E0DF91CF911F910F91B5
:10194000FF90EF90DF900C94D3050F931F9390932B
:101950007C0280937B0270937A0260937902F90192
:10196000A6E8B2E081918D9382E0AA38B807D1F75A
:10197000F801A0E8B2E081918D9382E0A638B80723
:10198000D1F750937E0240937D0281E080937F02E5
:1019900080918A028F5F883018F480938A0202C097
:1019A00010928A0280918A021F910F9108954F929E
:1019B0005F926F927F928F929F92AF92BF92CF92DF
:1019C000DF92EF92FF920F931F93CF93DF933C012F
:1019D0004B015A012901E80187010E94CA058823A9
:1019E00011F170927502609274029092730280926B
:1019F0007202B0927102A0927002509277024092ED
:101A000076029E01A60161E47AE081E098E00E94FE
:101A1000A50C8093780290911807E92FF0E0E95F18
:101A2000FE4F980F9083DF91CF911F910F91FF9000
:101A3000EF90DF90CF90BF90AF909F908F907F906E
:101A40006F905F904F900895DF92EF92FF920F9307
:101A50001F93CF93DF93EC017B016115710509F0B2
:101A600054C080916902893079F480910501909188
:101A70000601892BF9F40E94CA05882329F06AE639
:101A800072E0CE010E94AC0B80916902813091F42A
:101A90000E94CA05882371F06AE672E0CE010E94B6
:101AA000AC0B8091690288608093690210920601F4
:101AB0001092050180910501909106010196909385
:101AC00006018093050180917F02813009F04CC1AD
:101AD0000E94CA05882309F447C182E080937F02EF
:101AE000809117018F5F8093170140917D02509183
:101AF0007E0260918A0290E2699FB00111248F7189
:101B0000682BCE010E94210C2FC10E941609882348
:101B100041F18D89813019F4CE010E94A90980918B
:101B2000690283FF21C11D89123009F01DC144E003
:101B300050E06AE672E0CE014C960E940134892B97
:101B400009F012C1AE014A5E5F4FE091BE06F0910E
:101B5000BF06609168028AE692E0099510936902D7
:101B600003C1B701CE010E942F09882309F4FCC0EC
:101B70008F89813091F49AA1983009F0F8C0E091F2
:101B80008B02F0918C02309719F0CE014A9609959C
:101B9000B701CE010E94D709E7C096E3E916F10428
:101BA00018F4863009F0E0C09CA19B3009F0AAC06F
:101BB000D0936F02C0936E0266E872E0CE010E947D
:101BC0000709882309F4D0C0DFA4D2FE12C0E09137
:101BD0007B02F0917C02309709F479C08DA120E05E
:101BE00030E040E050E063E082958695877009958B
:101BF0006EC0CE010E94F3098C0180917F02823079
:101C000089F59D2D90718D2D82718231F1F440E026
:101C100060E070E0CE010E947D0A88E18FA7E0912C
:101C20007902F0917A02309731F08BA182958695F6
:101C30008770099502C080E090E023E020937F0246
:101C4000BC01CE010E94B30A8FC081E080937F0265
:101C5000911104C0B8016F5F7F4F02C060E070E077
:101C600044E04CC08330A9F50115110591F184E0E1
:101C700080937F02E0917B02F0917C02309749F1E2
:101C80004EA542954F7084E0489FA0011124C701E2
:101C900008974E5D5F4F8417950708F4AC01C801A3
:101CA000840F951FE816F90620F49701241B350BC5
:101CB00001C098018DA160E0829586958770099595
:101CC000882339F041E0B801CE010E947D0A85E009
:101CD0000DC080917F02853061F48FA580FF09C01F
:101CE00040E1B801CE010E947D0A86E080937F0228
:101CF0003BC001151105C1F140E0B801CE010E94C1
:101D00007D0A32C0863081F591112EC08DA18035BB
:101D100059F5DFA4D1FE04C0CE010E94D50A24C02B
:101D2000D4FE22C0CE010E94F3098C019093670279
:101D300080936602892B49F4D0FE16C040E060E033
:101D400070E0CE010E947D0A17C00EA502950F70AB
:101D500094E0099F800111240E5D1F4F88E0E81A6E
:101D6000F108E016F10640F400E010E005C096E34B
:101D7000E916F104C8F318CFC801DF91CF911F9184
:101D80000F91FF90EF90DF9008958FEF80932501E2
:101D900008950F931F93CF93DF93EB014AE250E036
:101DA000BC0189EE96E00E9442346AE571E089EE5A
:101DB00096E00E94FC339C0110921907809119074C
:101DC0008430E0F421153105C9F08E01080F111D92
:101DD0004AE050E060E070E0C9010E94BE32F801C4
:101DE0006083809119078F5F809319076AE571E01E
:101DF00080E090E00E94FC339C01E0CFDF91CF9126
:101E00001F910F910895613049F4FA01A6E4B1E001
:101E100081918D9381E0AC34B807D1F70895623099
:101E200049F4FA01A8EBB6E081918D9386E0AE3BD0
:101E3000B807D1F70895F894E091C006F091C10673
:101E4000408121E030E0B90102C0660F771F8A951A
:101E5000E2F7CB01962F9095242F29232083E09140
:101E6000C606F091C7062081282B2083EBEDF5E014
:101E70003197F1F700C00000E091C606F091C70667
:101E8000208192239083EAEDF0E03197F1F700C0D2
:101E9000E0913D07F0913E079081E1E0F5E0319758
:101EA000F1F7789489230895F894E091C006F091B1
:101EB000C106408121E030E001C0220F6A95EAF7B7
:101EC000922F9095342F39233083E091C606F091FC
:101ED000C7063081232B208329E22A95F1F700C021
:101EE000882339F0E091C606F091C70680818923E6
:101EF000808385EE8A95F1F70000E091C606F091A7
:101F0000C70680819823908378940895F894E0918F
:101F1000C006F091C106408121E030E0082E01C0EA
:101F2000220F0A94EAF7922F9095342F39233083A9
:101F3000E091C606F091C7063081232B208324E070
:101F40002A95F1F70000E091C606F091C7062081BE
:101F5000922390834AE34A95F1F70000E0913D0710
:101F6000F0913E0720815BEB5A95F1F700C0789421
:101F700030E0A90102C0559547958A95E2F7CA015C
:101F8000817008951F93CF93DF93D82F162FC9E048
:101F9000C15039F0612F8D2F81700E94540FD6955A
:101FA000F7CFDF91CF911F9108951F93CF93DF93C8
:101FB000182FD9E0C0E0D15051F0812F0E94860F38
:101FC00020E8829FC0011124C695C82BF4CF8C2F26
:101FD000DF91CF911F9108951F93CF93DF93C82F67
:101FE0000E941B0F811152C06C2F8CEC0E94C20FFB
:101FF0006C2F8EEB0E94C20F8C2F0E94D50FD82F12
:102000008C2F0E94D50F182F8C2F0E941B0F6C2F26
:102010008CEC0E94C20F6C2F84E40E94C20FE091EE
:10202000C606F091C706208181E090E001C0880FCC
:10203000CA95EAF7922F982B9083E091C006F09111
:10204000C1069081892B80832D2F22952F70912F8F
:10205000977030E1939FC0011124282BDF7041E776
:1020600052E0D49FC001D59F900D112417FF03C0EB
:102070002F578051974264E670E00E94AA32CB014C
:1020800034E62302800D911D112402C088EC92E3F6
:10209000DF91CF911F91089598E02CE8382F3627D3
:1020A000869530FD822766959150C1F7089547EBDC
:1020B00057E060E070E08FE893E00C940A0AFC01BE
:1020C00020812F3211F5319640E0BF01819180329D
:1020D00031F08F3221F0BF014F5F4630B1F750E051
:1020E000641B750BE1EBF6E001900020E9F73197F6
:1020F000E15BF6404E175F0741F481EB96E00E94EA
:102100003434892B11F481E008958FEF08958630DF
:1021100019F487E490E007C0853019F488E490E072
:1021200002C084EB90E09093140780931307089506
:10213000843479F48BE290E09093C1068093C006DA
:102140008AE290E09093C7068093C60689E290E009
:1021500021C0833479F488E290E09093C1068093A3
:10216000C00687E290E09093C7068093C60686E299
:1021700090E010C0823491F485E290E09093C10623
:102180008093C00684E290E09093C7068093C606D1
:1021900083E290E090933E0780933D0708952F924D
:1021A0003F924F925F926F927F928F929F92AF92E7
:1021B000BF92CF92DF92EF92FF920F931F93CF9334
:1021C000DF93CDB7DEB766970FB6F894DEBF0FBECC
:1021D000CDBF8C01698B4A8B288B80915C019091DB
:1021E0005D01A0915E018B879C87AD8710921907D6
:1021F000912C512CEE24E394F12C862F90E09C013D
:10220000220F331FA9014A5F5C4F1A01DC01A1565E
:10221000BD4F3D015C8B4B8BFC01EA59FC4FFE8BA3
:10222000ED8BD09019078D2D90E0F80101900020E2
:10223000E9F73197E01BF10B8E179F0708F08BC26F
:10224000F801E80FF91F8080FAE08F1206C086E4DB
:102250008B878C871F82912C3DC12AE3821204C098
:1022600033E093124CC2D6C14BE3841609F44AC240
:1022700050E7851609F448C281E6881609F447C27A
:102280009BE2891609F461C2AEE78A1609F45DC2C1
:10229000BDE28B1609F45CC2911007C08B858634B1
:1022A00011F08C8639C28B8637C2E1E09E1639F078
:1022B000F3E0F91508F066C124E092120BC03989E9
:1022C000343641F0AD89BE898C91811103C0F10192
:1022D000118210828C85863409F41C86CE010B96FF
:1022E0000E94B333C82E880FDD085601AA0CBB1C10
:1022F000F501EA5DFE4F80819181DC01ED91CD0118
:10230000EE870E94B333482EFEE78F120CC0F50112
:10231000E153FD4F80819181029719F4F6E09F2EE1
:1023200002C0E5E09E2E842D0E9487108E850E94BB
:102330009810F601EA5BFC4F90818091190791306B
:1023400009F0DAC0F601EA59FC4F9081913009F0AA
:10235000D3C021E0280F30E0F80101900020E9F718
:102360003197E01BF10B90E02E173F0740F4F80186
:10237000E20FF31F20812A53223008F0ADC0252D33
:1023800030E02801480E591EE7E0F0E0EC0FFD1F99
:10239000E20FF31FD2018C918083FE01E20FF31F45
:1023A0001086BE85B43409F091C0CE0107960E9414
:1023B000B333F501EA5FFC4F9183808324E09212EE
:1023C00009C0A0911307B09114078C91882311F0D4
:1023D00011821082C5018D5D9F4F0E94B037F501BB
:1023E000EA5DFC4F9183808334E0391508F05DC0CD
:1023F000D1018D919C910097C1F4F30180818111ED
:102400003EC0E0911307F09114078081882309F4FE
:1024100089C1D2018C918E3709F084C11082F501F7
:10242000E153FD4FF182E08251C00197D9F5E0916F
:102430001307F0911407B5E09B1206C080818F3F0F
:1024400061F080818F5F08C026E0921206C0808113
:10245000882319F080818150808381E0D3018C939F
:1024600083E090E0EB89FC8991838083E0911307FE
:10247000F09114078081F601E156FD4F20C08130B4
:1024800089F4F501E153FD4F80819181029728F491
:1024900082E090E09183808302C0F182E082D301E8
:1024A0001C9214C0F301108211C0009751F4E09106
:1024B0001307F0911407D501AA5FBC4F8C9180835C
:1024C00005C0F501E753F94F9183808386E48B873C
:1024D0008C871F82512C20C1F801E80FF91F8081E1
:1024E0008A3209F417C1E7E0F0E0EC0FFD1FE50DBB
:1024F000F11D8083539410C1F801E80FF11D808114
:10250000813359F0833321F4F889F13091F405C017
:10251000843321F52889211110C0E091C006F09183
:10252000C1062081C70101C0880F4A94EAF7822BB7
:1025300024C03889332321F021C048894130F1F487
:10254000E091C006F091C1069081970101C0220F71
:102550004A94EAF7822F809589230FC0803381F354
:10256000823361F4E091C006F091C1062081C70179
:1025700001C0880F4A94EAF78227808386E48B871C
:102580008C87CAC052E0951245C0852D90E0E1E0ED
:10259000F0E0EC0FFD1FE80FF91F8082FE01E80F4D
:1025A000F91F1282539481E08D0D90E0F8010190A3
:1025B0000020E9F73197E01BF10B8E179F0740F4DD
:1025C000F801E80FF91F80818A53823008F0A4C017
:1025D000D394D3948A89D80E96E19D1508F49CC0B3
:1025E000A9890A2F10E0CE0101960E94B333F801A9
:1025F000EE0FFF1FE155FD4F24E1AC01249FC00108
:10260000259F900D112491838083F801E156FD4FA1
:10261000D082A1C0D394D092190756E2C52E51E0C2
:10262000D52E86E693E09F878E8766E4A62E63E02C
:10263000B62ED6018D909D906D01C40101960E9429
:10264000B333482EF40180810E949810AE85BF8577
:102650008D91BF87AE87813009F047C0F501808139
:10266000813089F4842D0E94871080911907F80128
:10267000E80FF11D80818033C1F5E0911307F091DF
:102680001407108232C080911907F801E80FF11D7C
:102690008081813361F4E091C006F091C106208110
:1026A000C70101C0880F4A94EAF7822B1DC080330E
:1026B00071F4E091C006F091C1069081970101C0CC
:1026C000220F4A94EAF7822F809589230DC0823326
:1026D00061F4E091C006F091C1062081C70101C0FC
:1026E000880F4A94EAF782278083FFEFAF1ABF0A68
:1026F00026E431E02C153D0509F09BCF08C0992454
:1027000093940AC0912C08C042E0942E05C033E097
:10271000932E02C024E0922E809119078F5F809340
:1027200019077FCD35E0931279CED601A156BD4F62
:102730008C91811102C08FEF8C938C918083F50175
:10274000E153FD4F82E090E0BFCE95E0992EC2CDDF
:1027500086E0982EBFCD66960FB6F894DEBF0FBE0A
:10276000CDBFDF91CF911F910F91FF90EF90DF9040
:10277000CF90BF90AF909F908F907F906F905F9021
:102780004F903F902F900895CF92DF92EF92FF925B
:102790000F931F93CF93DF93CDB7DEB76E970FB62E
:1027A000F894DEBF0FBECDBFF22E022F10E0F8016D
:1027B000EE0FFF1FE153FD4F11821082FE01319693
:1027C0009E01215E3F4FDF011192E217F307E1F70F
:1027D000F801EA59FC4F2081233031F4F801EA5A1C
:1027E000FC4F3081343019F03FE03F1510F43FEFDB
:1027F00001C031E030932501883C9105E9F561572E
:102800007C4F6B0190E020E08A014D3D510510F0B6
:102810000CED10E07601E61AF70AE016F106E8F48E
:10282000F60181916F018D3011F08A3041F49230C0
:1028300041F0F60180818A3039F79F5FE5CF923011
:1028400051F48D01020F111DF80180832F5F2D318E
:1028500020F492E0D9CF90E0D7CFFD01E20FF11D37
:1028600010828981882309F448C023E040E064E6AF
:10287000CD010E94CF1041C0F801EA5BFC4F80817E
:10288000811107C0F801EF50FD4F80818F3F61F447
:102890000DC0823039F4F801EF50FD4F80818E3F3A
:1028A00019F404C0813011F0222339F18AE2E9EEF3
:1028B000F6E0DF011D928A95E9F787E1809FB0017C
:1028C000819F700D11246D567E4F47E150E0CF017E
:1028D0000E9498378091E90681508E3F58F4F801A4
:1028E000EF50FD4F20812E5F40E06F2D89EE96E086
:1028F0000E94CF1082E0809325016E960FB6F89467
:10290000DEBF0FBECDBFDF91CF911F910F91FF9022
:10291000EF90DF90CF9008951F920F920FB60F9215
:1029200011242F923F924F925F926F927F928F92DB
:102930009F92AF92BF92CF92DF92EF92FF920F934E
:102940001F932F933F934F935F936F937F938F9337
:102950009F93AF93BF93CF93DF93EF93FF938091B8
:10296000EF02813099F48091210190912201A09190
:102970002301B09124010196A11DB11D8093210175
:1029800090932201A0932301B0932401809101032D
:1029900090910203A0910303B09104038330910549
:1029A000A105B10558F00197A109B1098093010370
:1029B00090930203A0930303B093040386E6282EAA
:1029C00083E0382E96E2C92E93E0D92E29ECE22E30
:1029D00026E0F22EC6E0D3E00FEA12E03FECA32E91
:1029E00032E0B32E46E4842E43E0942E56E5652E65
:1029F00053E0752E66E2462E61E0562ED1012D91F0
:102A00001D01213009F040C0F4018081813009F0BE
:102A10006BC0D6018D919C91181619060CF064C0FC
:102A2000F70180819181009709F45EC081309105A2
:102A300031F5D2018D919C9101960E94B3330E9491
:102A40008710E0911307F091140780814881598124
:102A5000282F30E02417350714F48F5F08C0421781
:102A6000530714F4815003C0D6011D921C92808339
:102A7000F60180819181D7018D939C9335C0019798
:102A8000F7019183808330C0D5018D919C9111977E
:102A9000009751F001978D939C93892B29F481E045
:102AA00090E0F80191838083D8018D919C911197DA
:102AB0008330910518F001978D939C93233051F446
:102AC000F3018081843081F4888199811816190678
:102AD00044F00AC0211108C0888199818230910593
:102AE0001CF0019799838883F2E0CF0ED11C82E01D
:102AF000E80EF11C22960E5F1F4F92E0A90EB11C4A
:102B0000AFEF8A1A9A0ABFEF6B1A7B0AE2E04E0E09
:102B1000511CF6E72F16F3E03F0609F06FCF99B18D
:102B2000909530911C07492F432720911E012423A3
:102B3000922F909590931E0180911D0184238927E7
:102B400080931D0194238923932F982320911A07A2
:102B5000922B90931A07382730931C0738238091C3
:102B60001707382B3093170796B1909530911507BA
:102B7000492F432720911C012423922F9095909355
:102B80001C0180911B018423892780931B019423BE
:102B90008923932F982320911607922B9093160741
:102BA000382730931507382380913B07382B309313
:102BB0003B0793B1909580911B07392F38272091BF
:102BC0001A012323922F909590931A0120911901B5
:102BD000232329272093190193239223282F292384
:102BE00030913F07232B20933F07892780931B07B2
:102BF000892390914007892B8093400781E080933F
:102C00009802FF91EF91DF91CF91BF91AF919F918A
:102C10008F917F916F915F914F913F912F911F9174
:102C20000F91FF90EF90DF90CF90BF90AF909F906B
:102C30008F907F906F905F904F903F902F900F906C
:102C40000FBE0F901F901895F89490911707892345
:102C500098279093170778940895F89490911A07FD
:102C60008923982790931A0778940895F89490915F
:102C70003B078923982790933B0778940895F8940D
:102C800090911607892398279093160778940895B2
:102C9000F89490914007892398279093400778945F
:102CA0000895F89490913F078923982790933F07C0
:102CB00078940895CF93DF93D82F862FC42F0E9446
:102CC0009810E091C606F091C706208181E090E05F
:102CD00001C0880FCA95EAF7D13311F4822B02C0E4
:102CE000809582238083DF91CF910895CF93DF93E6
:102CF000CDB7DEB7EA970FB6F894DEBF0FBECDBFF3
:102D000080E8809361001092610080E08A95F1F77D
:102D100044E050E066EF73E082EC96E00E94983762
:102D20008091C2068F3FB1F080935001809356018D
:102D30008091C30680935101809357018091C4060E
:102D400080935201809358018091C506809353016E
:102D50008093590184E591E00E94210582E00E9460
:102D60001C0580E08A95F1F766E774E084E10E9433
:102D7000FF0440E150E063E670E086E693E00E94E5
:102D8000983740E150E063E570E086E593E00E940B
:102D9000983740E150E063E470E086E493E00E94FD
:102DA000983740E250E063E270E086E293E00E94F0
:102DB000983781E290E00E94B03790935207809359
:102DC0005107019631F480E590E09093520780938B
:102DD000510746E050E06AE073E081EB96E00E9424
:102DE00098378091B1068F3F31F46FE571E081EB48
:102DF00096E00E942D34209A80917A00866080931C
:102E00007A0080917C00806480937C0080917A00BD
:102E1000806880937A0010921907DD24D394EE2401
:102E2000E394F12C00911907003108F040C110E043
:102E3000000F111FF801EA5DFE4F80819181DC01D6
:102E4000CD90CD01C0923C070E94B333809397028E
:102E5000F801E153FD4F11821082F801E155FD4F59
:102E600011821082F801EA5FFC4F118210828C2DD2
:102E70000E949810C09019078C2D90E0FC01EA592F
:102E8000FC4F2081213009F094C0E091C606F091FA
:102E9000C7062081C7010090970202C0880F991FC2
:102EA0000A94E2F7822B8083E0911907F0E0EA5A56
:102EB000FC4F808120919702E091C006F091C106FD
:102EC000813041F43081C70101C0880F2A95EAF7AB
:102ED000832B0AC09081870102C0000F111F2A9521
:102EE000E2F7802F80958923808380913C0784348A
:102EF000A1F480919702863019F484B58F7704C0CD
:102F0000853021F484B58F7D84BD07C0833029F4DA
:102F10008091B0008F7D8093B000E0911907F0E0C0
:102F2000EA5BFC4F8081813009F09CC080913C07B6
:102F3000843409F097C085B5826085BD8091970281
:102F4000863039F417BC84B5806884BD84B581604F
:102F500084BD80919702853039F418BC84B58062B5
:102F600084BD84B5816084BD80919702833089F4EB
:102F70001092B4008091B00080628093B000809184
:102F8000B00081608093B0008091B1008260809336
:102F9000B100809197020E948710A0911307B09111
:102FA0001407E0911907F0E0EA5AFC4F80818C93F6
:102FB00059C030913C072F3F29F4313411F00C9463
:102FC000B3312FC0313469F12330D1F4FC01EA5A16
:102FD000FC4F80818330A1F4809197020E94EC0F16
:102FE0008091190790E0880F991FFC01EA5FFC4F60
:102FF000DC01AA5DBC4F8D919C919183808311C0AF
:10300000E091C606F091C706908197010090970263
:1030100002C0220F331F0A94E2F7822F8095892382
:103020008083C09019078C2D90E0FC01EA59FC4F79
:103030002081223031F030913C07313411F00C9472
:10304000A431FC01EA5BFC4F308131503E3F40F03F
:10305000233041F4FC01EA5AFC4F8081833011F4A3
:10306000D092EF02C09019078C2D90E0FC01EA5934
:10307000FC4F2081223031F030913C07313411F087
:10308000233089F48C01000F111FC801805090403B
:103090000E94B037F801E753F94F9183808301967E
:1030A00011F411821082C394C0921907BBCE809193
:1030B000810088608093810080918100846080938A
:1030C000810084EF90E0909389008093880082E0F3
:1030D00080936F00789484E591E00E94E2086CE4AC
:1030E00071E080E591E00E94ED0844E050E06FE17E
:1030F00073E083E297E00E949837809123078F3F27
:1031000041F444E050E063E273E083E297E00E9420
:1031100098374FE050E060E173E081E497E00E946F
:10312000983745E050E063E073E08DE197E00E945E
:10313000983780911D07811103C08FEF80931D0781
:103140008091230781508E3F80F543E05FE061E08E
:1031500083E297E00E940D0C88E293E290939E0236
:1031600080939D020E94060C8823B9F080919D02F5
:1031700090919E02892B89F06FE873E081E293E0E1
:103180000E941306BC018FE893E00E94240D8091F9
:103190009D0290919E020197E1CF44E050E063E2EE
:1031A00073E083E297E00E94983780E290E00E940B
:1031B000A837813069F480EE9EE2A0E0B0E0809311
:1031C000010390930203A0930303B093040308C088
:1031D0001092010310920203109203031092040351
:1031E000809123078F3F21F10E94CA05882301F1B6
:1031F00061E477E089EE96E00E942D3463E671E0A9
:1032000089EE96E00E940E34C0905107D09052078C
:1032100096E4E92E91E0F92E03E217E025EC3EE07A
:1032200047E257E069EE76E085EB97E00E94D70C25
:1032300098E288E10FB6F894A895809360000FBEDD
:103240009093600018AE1FAA89EE482E86E0582E93
:103250009E012F5F3F4F3901A8956FE873E081E22F
:1032600093E00E941306B82EA92E8091620281304D
:1032700031F484E591E00E942105109262021092DF
:10328000B0060E94C2056B2D7A2D8FE893E00E9454
:10329000240D9CAB8BAB1091250117FDF8C08091DC
:1032A0007F028150843008F4F2C0E0901807F12CBE
:1032B000C7018D589F4F0E94A837813039F41230D2
:1032C00029F0809123078F3F09F0DEC011E11E9D98
:1032D000B0011F9D700D11246D577F4F44E050E0E9
:1032E000CE018F960E9498378FA58F3F09F4CCC0EE
:1032F0008AE2D2011D928A95E9F760911807169F1C
:10330000B00111248B010D571F4F7801B4E0EB0E73
:10331000F11CC7010E94A8378A3379F4C8010596C9
:103320000E94B0376C01B801695F7F4F4AE050E0FE
:1033300089EE96E00E9498370AC04DE050E0B70150
:1033400089EE96E00E94983700E5C02ED12C4FE020
:103350005FE062E0CE018F960E940D0C88E893E159
:1033600090939E0280939D020E94060C8823D1F0C8
:1033700080919D0290919E02892BA1F06FE873E0ED
:1033800081E293E00E941306B82EA92E682F792FB0
:103390008FE893E00E94240D80919D0290919E02FF
:1033A0000197DECFF20101900020E9F73197E95E45
:1033B000F640DF01A951B94F8C918A33B9F4A0913D
:1033C0001807B0E0AF50BD4F8C9187FF0FC0E85198
:1033D000F94F9081933321F0943341F40C94AA3146
:1033E0008F3F11F00C94AC3181E3808380911D07F5
:1033F00081508E3FE8F46FE370E089EE96E00E9422
:103400001934892B19F069E671E002C06BE671E0AE
:1034100089EE96E00E940E3467EA71E089EE96E04C
:103420000E940E346DE177E089EE96E00E940E3442
:103430008AA91F928F9389A91F928F9388A91F929F
:103440008F938FA51F928F93EDE6F1E0FF93EF939B
:1034500027E237E03F932F930E94D53418EBE12EFB
:1034600016E0F12E8E01015D1F4F25EC3EE047E294
:1034700057E069EE76E083EB97E00E94D70C0FB639
:10348000F894DEBF0FBECDBF8FEF80932501109261
:10349000190788248394912CB6E92B2E312C809126
:1034A0001907803108F0B4C4082F10E0F801EA5978
:1034B000FC4F8081813009F4A5C47801EE0CFF1C1B
:1034C000F701EA5DFE4F80819181DC012D91CD01F4
:1034D00020933C070E94B33380939702F701E15594
:1034E000FD4F80819181019779F5118210828AE2E6
:1034F000F20111928A95E9F787E1809FB001819FDF
:10350000700D11246D567E4F47E150E089EE96E034
:103510000E9498378091E90681508E3F68F460914F
:103520001907E62FF0E0EF50FD4F20812E5F40E0BD
:1035300089EE96E00E94CF1010927F0282E0809385
:1035400025018FEF809346018091190790E0FC01DF
:10355000EA59FC4F20812223C1F0223071F03091D2
:103560003C07313451F0233009F0CBC3FC01EA5A57
:10357000FC4F3081333008F4C4C3FC01EF50FD4FE1
:10358000308113160CF474C0BCC3FC01EA5AFC4F22
:1035900040815091970220913C07413011F0473013
:1035A00089F5243411F429B105C0233411F426B16E
:1035B00001C023B130E002C0359527955A95E2F756
:1035C000122F10951170413019F4112351F015C0CC
:1035D000473039F411110C94863181E080830FEF6C
:1035E0005CC0DC01AA5BBC4F8C91823011F00C9462
:1035F0008731112311F40C94873187E0808311E027
:103600000C948731882D01C0880F5A95EAF724342D
:1036100071F40E942416182FC4010090970202C072
:10362000880F991F0A94E2F70E942D160FC02334C9
:1036300089F40E943616182FC4010090970202C028
:10364000880F991F0A94E2F70E943F16082F8111F4
:1036500024C033C00E944816182FC401009097025E
:1036600002C0880F991F0A94E2F70E945116EECF0C
:10367000FC01EA5AFC4F8081833041F0223031F066
:1036800080913C07813411F00C94AF3111E031305E
:1036900009F010E011950C94B0318091190790E079
:1036A000FC01EA59FC4F2081211107C0880F991FA6
:1036B000FC01EA5FFC4F11821082E0911907F0E0F3
:1036C000DF01AF50BD4F8C9118160CF443C0DF01E1
:1036D000AA5BBC4F8C919FEF980F9E3F18F0111181
:1036E00039C006C0813021F4111134C0011132C03B
:1036F000DF01AA59BC4F8C91882351F080911907A2
:1037000090E0FC01EA5BFC4F20812230C1F415C03F
:10371000EE0FFF1FEA5DFC4F80819181019771F7E9
:10372000111102C0002351F3809123078F3F31F321
:103730000E94CA0581110EC0E1CF01110BC0880F94
:10374000991FFC01E153FD4F8081918187399105DB
:1037500008F4D7C2E0911907F0E0DF01AA5ABC4F84
:103760008C919F012A593C4FAF014F505D4F8330E0
:1037700039F4D9018C91833019F4112319F006C062
:10378000002311F08EEF05C0112311F08FEF01C05F
:103790008DEFDA018C93DF01AA5BBC4F4C918FEF68
:1037A000840F8E3F18F0111108C028C0423019F460
:1037B000011103C023C0413009F5BF01660F771F17
:1037C000CB0181539D4FDC018D919C9186399105F0
:1037D000A8F4CB018A5F9C4FDC018D919C910197ED
:1037E00069F0D9018C91811109C0DB01A753B94F50
:1037F0008D919C91119701968D939C93D9018C91F9
:10380000811111C0423079F0112369F0EE0FFF1FD2
:10381000EA5FFC4F808191811816190624F088EC2C
:1038200090E091838083809123078F3F09F418C231
:103830000E94CA05882309F413C2909146019F3F54
:1038400011F410927F0280917F028150843008F43D
:10385000E2C19F3F09F047C044E050E06FE173E0F0
:1038600083E297E00E949837809123078F3F41F4CD
:1038700044E050E063E273E083E297E00E9498370F
:1038800043E05FE061E083E297E00E940D0C88E88E
:1038900093E190939E0280939D020E94060C8823E0
:1038A000D1F080919D0290919E02892BA1F06FE84A
:1038B00073E081E293E00E941306B82EA92E682FD0
:1038C000792F8FE893E00E94240D80919D029091C2
:1038D0009E020197DECF44E050E063E273E083E2B2
:1038E00097E00E949837809119074AE0BE016E5D0B
:1038F0007F4F90E00E947834809126071F928F932B
:10390000809125071F928F93809124071F928F9398
:10391000809123071F928F93EDE6F1E0FF93EF93E1
:1039200027E237E03F932F930E94D53461E477E09C
:1039300089EE96E00E942D3469E771E089EE96E009
:103940000E940E34BE016E5D7F4F89EE96E00E94AC
:103950000E340091190710E0F801EA59FC4F9081EC
:103960000FB6F894DEBF0FBECDBF91113BC0F8017A
:10397000EF50FD4F7F018081000F111F8E3F39F402
:103980006EE771E089EE96E00E940E3414C0980153
:103990002A5F3C4F6901D9018D919C91019759F49F
:1039A00063E871E089EE96E00E940E34F601118220
:1039B0001082D7011C92F801E753F94F81818F9350
:1039C00080818F935F924F92E8E8F1E0FF93EF934D
:1039D0005F924F920E94D5340FB6F894DEBF0FBEAF
:1039E000CDBFA7C0923069F0933031F4F801EA5AA4
:1039F000FC4F8081833029F080913C07813409F0AD
:103A000045C062E971E089EE96E00E940E34000F35
:103A1000111FF801EA5FFC4F4AE0B30180819181F8
:103A20000E947834B30189EE96E00E940E3466E974
:103A300071E089EE96E00E940E34E09119070E2F96
:103A400010E0C801880F991FFC01EA5FFC4FDC0100
:103A5000AA5DBC4F208131818D919C918217930783
:103A60001CF461E871E002C069ED71E089EE96E056
:103A70000E940E34F801EA59FC4F8081823009F02F
:103A800058C0F801EF50FD4F108253C0933009F039
:103A900050C0F801EA5AFC4F9081943009F049C0B7
:103AA0000E9498106091970283E30E94C20F809158
:103AB00097020E94D50F682F80E00E944C10182FAB
:103AC0006CE971E089EE96E00E940E3407E0015047
:103AD000809197020023F1F00E94D50FF82E1F92DB
:103AE0008F9341EA51E05F934F937F926F920E94D0
:103AF000D534B30189EE96E00E940E346F2D812FEC
:103B00000E944C10182F0F900F900F900F900F9055
:103B10000F90DDCF0E94D50F18130DC0112359F05F
:103B2000E0911907F0E0EE0FFF1FEA5FFC4F3182D2
:103B3000208210E001C011E080911D078F3F61F0ED
:103B400066EA71E089EE96E00E940E346DE177E05E
:103B500089EE96E00E940E34809119078093180731
:103B6000111114C0C0905107D0905207E6E4EE2E18
:103B7000E1E0FE2E03E217E024EC33E147E257E0F8
:103B800069EE76E081EB97E00E94D70C80911907EF
:103B900090E0FC01EA5BFC4F2081211107C0FC0191
:103BA000EF50FD4F20812F3F61F411C0223039F4D6
:103BB000FC01EF50FD4F20812E3F19F408C0213049
:103BC00031F0FC01EA59FC4F2081222339F0880FA3
:103BD000991FFC01E153FD4F318220828091010346
:103BE00090910203A0910303B09104030197A109EE
:103BF000B109873E9340A105B105E0F408EE13E05A
:103C000020E030E0009301031093020320930303AC
:103C1000309304030FC0E0911907F0E0EE0FFF1F8F
:103C2000E153FD4F80819181892B21F42AEF30E00F
:103C3000318320838091190790E0FC01EA59FC4F01
:103C40002081233009F05DC0FC01EA5AFC4F20813D
:103C5000243009F056C0FC01EF50FD4F108251C0D6
:103C6000809123078F3F91F420911907822F90E0D4
:103C7000FC01EE0FFF1FEA5FFC4F40815181413094
:103C8000510549F031E03093250105C00E94CA0575
:103C9000882351F336C0FC01EA59FC4F30813330A0
:103CA00051F4FC01EA5AFC4F3081333021F0FC0121
:103CB000EF50FD4F1082209318072AE2D2011D9287
:103CC0002A95E9F727E1289FB001299F700D11245B
:103CD0006D567E4F47E150E089EE96E00E9498379E
:103CE0008091E90681508E3F60F4112311F021E0AC
:103CF00001C020E040E06091190789EE96E00E9443
:103D0000CF102091190730E0F901EE0FFF1FE155A8
:103D1000FD4F80819181029769F511821082F9012E
:103D2000E156FD4F808190E047E150E0481B590B80
:103D3000E7E1E29FB001E39F700D11246D567E4FC5
:103D4000680F791FC3010E94983760911907862F69
:103D500090E0FC01EF50FD4F20812D3F11F42EEF3C
:103D6000208320812E5FFC01E156FD4F4081C3017D
:103D70000E94CF108091190790E0FC01EA59FC4F96
:103D80002081211116C0FC01EA5BFC4F208122300A
:103D9000C9F1FC01EE0FFF1FEA5FFC4F208131816A
:103DA0002130310579F5FC01EF50FD4F21E02083F2
:103DB00029C0233039F5FC01EA5AFC4F2081243018
:103DC00009F5880F991FFC01EA5FFC4F8081918102
:103DD000892BC1F480913C070E9498108091970232
:103DE0000E941B0FE0911907F0E0811105C0EF5010
:103DF000FD4F81E0808306C0EE0FFF1FEA5FFC4F9E
:103E000091828082809119078F5F8093190747CB39
:103E10008091EF02813009F0F8C0809121019091EA
:103E20002201A0912301B0912401893E9340A10574
:103E3000B10508F4EAC01092190712E0812E33246C
:103E4000339480911907803108F0D7C0E82EF12C07
:103E50006701CC0CDD1CF601EA5DFE4F808191818B
:103E6000DC019D90CD0190923C070E94B33380937A
:103E70009702F701EA59FC4F9081923059F0933044
:103E800031F4F701EA5AFC4F2081233019F0B1E4F4
:103E90009B12ADC0F601EA5DFC4F208131812115F6
:103EA000344034F4F701EA5BFC4F2081211104C057
:103EB000933009F09CC002C09330A9F4892D0E9470
:103EC0009810809197020E94EC0F8433F1E29F07D3
:103ED000E1F4E0911907F0E0EE0FFF1FEA5FFC4FFD
:103EE0008081918112C0805C80937C0080917A00F7
:103EF000806480937A0080917A0086FDFCCF809167
:103F000078002091790090E0922B4091190750E0C1
:103F1000FA01EA5BFC4F60819A01220F331F613086
:103F2000D9F4F901EA5DFC4F60817181F901E75331
:103F3000F94F0190F081E02D6E0F7F1F6817790710
:103F40000CF050C0F901EA5FFC4F0190F081E02DC8
:103F50006E177F07D4F546C0623071F4F901EA5D4F
:103F6000FC4F60817181F901E753F94F0190F081B5
:103F7000E02D6E1B7F0B1DC06330A1F5F901EA5DDA
:103F8000FC4F60817181F901E753F94FC080D18006
:103F9000DB01AC0DBD1DA817B9074CF489010A5F00
:103FA0001C4FF801E080F180AE15BF0574F46C1968
:103FB0007D0986179707B4F4F901EA5FFC4F019079
:103FC000F081E02DE617F7076CF0FA01EF50FD4F96
:103FD0008082D901AA5DBC4F4D915C914817590769
:103FE0000CF43082F901EA5FFC4F91838083809169
:103FF00019078F5F8093190724CF10922101109227
:1040000022011092230110922401809101039091CA
:104010000203A0910303B09104030197A105B10528
:1040200009F0CEC080917F028150843008F4ACC08A
:1040300020E04FA958AD41575C4F243691F0822FB4
:1040400090E0FA01E80FF91F36A981579C4FFC0157
:10405000E454FD4F3A3211F4108201C030832F5FD7
:10406000ECCF20931907809146018F3F09F047C09C
:1040700044E050E06FE173E083E297E00E949837FC
:10408000809123078F3F41F444E050E063E273E006
:1040900083E297E00E94983743E05FE061E083E2CB
:1040A00097E00E940D0C88E893E190939E02809324
:1040B0009D020E94060C8823D1F080919D02909170
:1040C0009E02892BA1F06FE873E081E293E00E94E9
:1040D0001306B82EA92E682F792F8FE893E00E943F
:1040E000240D80919D0290919E020197DECF44E0C5
:1040F00050E063E273E083E297E00E94983780919A
:1041000026071F928F93809125071F928F9380918E
:1041100024071F928F93809123071F928F930DE6A0
:1041200011E01F930F9347E257E05F934F930E9474
:10413000D53480E180931807C0905107D090520782
:1041400046E4E42E41E0F42E03E217E024EC33E1F0
:1041500047E257E06BE476E08FEA97E00E94D70CE5
:1041600000EE1EE220E030E0009301031093020312
:1041700020930303309304030FB6F894DEBF0FBE01
:10418000CDBF18AE1FAA11C088EE93E0A0E0B0E04A
:104190008093010390930203A0930303B09304035D
:1041A000809105038F5F809305038091050386301E
:1041B00039F41092050310927F028FEF809346012D
:1041C0008091010390910203A0910303B091040335
:1041D0000297A105B10509F406C1ABA9BCA9AB2B97
:1041E00009F0DDC08091A603813109F035C88091C6
:1041F000B303853009F030C88091B403843A09F0E4
:104200002BC844E050E06AEA77E089EB93E00E9433
:10421000EE3344E050E0892B09F074C065EA77E0A2
:1042200089EE96E00E94E53344E050E06FE173E0F0
:1042300083E297E00E9498378091230790912407AA
:10424000A0912507B09126078093ED069093EE0686
:10425000A093EF06B093F00680914C0190914D0130
:10426000A0914E01B0914F018093F1069093F20618
:10427000A093F306B093F40644E050E063E273E0E9
:1042800083E297E00E94983780915001909151010C
:10429000A0915201B09153018093F5069093F606D8
:1042A000A093F706B093F80686E0E4E5F1E0A9EF05
:1042B000B6E001900D928A95E1F71092FF061092F8
:1042C0000007109201071092020705E913E02CEF96
:1042D00030E249EA53E064EA75E08FE893E00E9437
:1042E000320B8AE1E9EEF6E0A9EBB3E001900D9222
:1042F0008A95E1F76AE170E08FE893E00E94880B0D
:104300000C942C1960EA77E089EB93E00E94EE337D
:10431000892B11F00C942C1946E050E064E571E013
:1043200089EC93E00E940134892B11F00C942C1934
:1043300044E050E06BE977E089EE96E00E94E533D7
:1043400005E913E02CEF30E249EA53E064EA75E056
:104350008FE893E00E94320B84E0E9EEF6E0A9EBEF
:10436000B3E001900D928A95E1F764E070E08FE888
:1043700093E00E94880B44E050E06FE173E08DEB26
:1043800093E00E94B63744E050E066EF73E085ECBE
:1043900093E00E94B637EBA9FCA90C9483310BA9DA
:1043A0001CA90D561C4F42E050E0B8018DEA91E087
:1043B0000E943434892B31F40E94571049E857E0A9
:1043C0000C94E52DC8010E945F108F3F61F44FE50A
:1043D00057E060E070E08FE893E00E940A0AB82E90
:1043E000A92E0C946E3119820BA91CA90D561C4FD5
:1043F00023EF31E041E2B301C8010E94BA318823C2
:10440000A1F060EB71E0C3010E942434FF24F39417
:10441000892B09F0F12C8981882341F023E040E0C9
:1044200064E6C3010E94CF1001C0F12C24EB31E0FF
:1044300043E066E773E0C8010E94BA3120910103AE
:104440003091020340910303509104032BAB3CAB2A
:104450004DAB5EAB811111C067EB71E0C3010E94EF
:104460002434892B51F08BA99CA9ADA9BEA9029730
:10447000A105B10511F00C94A12B86E793E00E94F1
:10448000B3336C0167EB71E0C3010E942434892BC4
:1044900051F02BA93CA94DA95EA922303105410557
:1044A0005105E1F441C08BA99CA9ADA9BEA9019712
:1044B000A109B109873C9105A105B105C0F588ECBA
:1044C00090E0A0E0B0E08093010390930203A093FA
:1044D0000303B093040330E13BAB2BC02BEB31E083
:1044E00049E169EE76E0C8010E94BA31882361F0A3
:1044F00089EE96E00E94B333F601FF27EE0FFF1F0F
:10450000E753F94F918380832FEB31E049E169EE66
:1045100076E0C8010E94BA3181110C94472DEC2C31
:1045200041E04C0D4BAB08C050E15BAB02C080E1F9
:104530008BABE12CFF24F394CC0CDD1CF601EA5D7F
:10454000FE4F80819181DC012D91CD0120933C07AC
:104550000E94B3338093970224EC31E044E069EE8B
:1045600076E0C8010E94BA31882341F04091970259
:1045700060913C078091E9060E945A1628EC31E0D0
:1045800044E069EE76E0C8010E94BA31882309F45C
:1045900068C089EE96E00E94B3334C012CEC31E008
:1045A0004BE0BE016E5D7F4FC8010E94BA3197E0BB
:1045B000A92EB12C992466E773E0C3010E942D3423
:1045C00060ED71E0C3010E940E34C4010A2C02C0E8
:1045D000959587950A94E2F780FF03C062ED71E03C
:1045E00002C065ED71E0C3010E940E34BE016E5D34
:1045F0007F4FC3010E940E3466E773E0C3010E943F
:104600000E3468ED71E0C3010E940E3423E040E0F7
:1046100064E6C3010E94CF10B1E0AB1AB10858F6AE
:104620004091970260913C0780E30E945A1623E074
:1046300040E064E6CE0182960E94CF10B0909702CF
:1046400080913C070E949810E091C606F091C70641
:10465000208181E090E001C0880FBA94EAF7822BB4
:1046600080832BED31E044E069EE76E0C8010E94E2
:10467000BA318823C9F189EE96E00E94B3332091C4
:104680003C07243489F58C018F3F910519F010F017
:104690000FEF10E0C6018D5D9F4F0E94B037D6012D
:1046A000AA5DBC4F11969C938E93181619069CF424
:1046B000F601E753F94F208131812115310519F0B9
:1046C0002D933C9302C091838083F601EA5FFC4FF7
:1046D0001183008309C0809197020E948710E091A6
:1046E0001307F091140700830E94571098AF8FAB07
:1046F0008091010390910203A0910303B091040300
:104700000297A105B10559F541E457E06FA978ADCD
:104710008FE893E00E94370A4DE557E0BC018FE82F
:1047200093E00E940A0A20911D072F3F71F047E590
:1047300057E0BC018FE893E00E940A0A4DE157E080
:10474000BC018FE893E00E94370A41E557E0BC01C5
:104750008FE893E00E940A0AB82EA92E02C0BFA8D3
:10476000A8ACE09219070BA9802F90E08C010150B2
:1047700011091AAF09AF1AE2E12E04E6802E912C3E
:1047800083EE282E81E0382EE09119070BA9E0175F
:1047900008F0B4C7F0E0EE0FFF1FEA5DFE4F808126
:1047A0009181DC011D91CD0110933C070E94B33330
:1047B00080939702812F0E949810F1103CC040E135
:1047C00058E06B2D7A2D8FE893E00E940A0A41EBA6
:1047D00056E0BC018FE893E00E94370A43E457E0BB
:1047E000BC018FE893E00E940A0ABC0180913C075B
:1047F000813491F441E457E08FE893E00E940A0A83
:10480000E0911907F0E0EE0FFF1FEA5DFE4F4081D7
:1048100051814F5F5F4F08C04FE357E08FE893E04F
:104820000E940A0A46E753E0BC018FE893E00E9429
:10483000370AB82EA92E30919702303108F085C280
:10484000E0911907F0E0DF01AA59BC4F2C9122300A
:1048500021F080913C07813431F5F1100AC04DE31D
:1048600057E06B2D7A2D8FE893E00E940A0AB82E4C
:10487000A92E80919702805C80937C0080917A00C1
:10488000806480937A0080917A0086FDFCCF8091CD
:1048900078002091790090E04AE069EE76E0922B72
:1048A0000E9478347FC1A091C606B091C7068C9152
:1048B00090E002C0959587953A95E2F780FF10C188
:1048C000213009F00DC1EA5BFC4F8081813009F095
:1048D00077C0F11034C045E157E06B2D7A2D8FE899
:1048E00093E00E940A0A41EB56E0BC018FE893E096
:1048F0000E94370A42E157E0BC018FE893E00E9432
:104900000A0A45E258E0BC018FE893E00E940A0AD7
:1049100048E057E0BC018FE893E00E940A0A46E7AE
:1049200053E0BC018FE893E00E94370A45EE56E061
:10493000BC018FE893E00E940A0AB82EA92E80914C
:104940003C07843461F58091190790E0880F991F26
:10495000FC01EA5DFC4F20813181121613065CF4E4
:10496000F11009C0FC01EA5FFC4F4AE069EE76E015
:104970008081918112C080919702853011F488B5B1
:1049800008C0863011F487B504C0833041F48091AB
:10499000B4004AE069EE76E090E00E94783449EE97
:1049A00056E06B2D7A2D8FE893E00E94370AB82EDF
:1049B000A92EF1108BC64BEB56E0682F792F89C0DA
:1049C000F1100AC049EB56E06B2D7A2D8FE893E089
:1049D0000E940A0AB82EA92EE091C006F091C106E5
:1049E000808190E00090970202C0959587950A9487
:1049F000E2F780FF03C044EF57E002C040EF57E00A
:104A00006B2D7A2D8FE893E00E940A0AB82EA92E0A
:104A1000F1105CC64BE058E0682F792F8FE893E0E7
:104A20000E940A0A40E158E0BC018FE893E00E942E
:104A30000A0A41EB56E0BC018FE893E00E94370A76
:104A40004AEE57E0BC018FE893E00E940A0A46E76D
:104A500053E0BC018FE893E00E94370A44EE57E030
:104A6000BC018FE893E00E940A0A46E753E0BC01CC
:104A70008FE893E00E94370A4CE956E0BC018FE8CA
:104A800093E00E940A0A41EB56E0BC018FE893E0F4
:104A90000E94370A4AEE57E0BC018FE893E00E947B
:104AA0000A0A46E753E0BC018FE893E00E94370A08
:104AB00044EE57E0BC018FE893E00E940A0A46E703
:104AC00053E0BC018FE893E00E94370A44E856E0C7
:104AD000BC018FE893E00E940A0AB82EA92E37C1C4
:104AE000233009F0E2C0EA5AFC4F8081843009F497
:104AF0002CC110929C0210929B0210929A0210926A
:104B000099028093C806F1100AC04DE756E06B2D5C
:104B10007A2D8FE893E00E940A0AB82EA92E809180
:104B2000C806833009F043C0E0911907F0E0EE0FAA
:104B3000FF1FEA5FFC4F20813181283CB2E33B0735
:104B400039F46FED71E089EE96E00E942D342AC0B1
:104B5000C901B4010E94AA3237FF15C097FF03C0F4
:104B60009195819591099F938F93C901B4010E94FA
:104B7000AA327195619571097F936F93E2EEF1E02E
:104B8000FF93EF9306C09F938F937F936F933F9212
:104B90002F925F924F920E94D5340FB6F894DEBFE9
:104BA0000FBECDBF49EE56E06B2D7A2DC8C0809167
:104BB000010390910203A0910303B09104038D3788
:104BC0009E42A105B10548F087ED98EBA5E0815024
:104BD0009040A040E1F700C00000E0911907F0E02C
:104BE000EA5AFC4F408169E972E08BE992E00E9449
:104BF000FF0720919B0230919C02C901B4010E94E1
:104C0000AA3297FF03C09195819591099F938F9345
:104C1000C901B4010E94AA327F936F933F922F92F1
:104C20005F924F920E94D53449EE56E06B2D7A2D5B
:104C30008FE893E00E94370A8C012091990230910D
:104C40009A02C901B4010E94AA3297FF03C091954C
:104C5000819591099F938F93C901B4010E94AA3253
:104C60007F936F933F922F925F924F920E94D53421
:104C70000FB6F894DEBF0FBECDBFF1100BC04BE0F6
:104C800058E0B8018FE893E00E940A0A48E756E02E
:104C9000BC0103C04BE756E0B8018FE893E00E94E7
:104CA0000A0A49EE56E0BC014AC0F1100AC046E7C4
:104CB00056E06B2D7A2D8FE893E00E940A0AB82EF9
:104CC000A92EE0913D07F0913E07808190E0009091
:104CD000970202C0959587950A94E2F780FD03C07C
:104CE00044EF57E002C040EF57E06B2D7A2D8FE87C
:104CF00093E00E940A0AB82EA92EE0911907F0E06D
:104D0000EA59FC4F8081811120C044E756E06B2DA9
:104D1000792F8FE893E00E940A0A8C01E09119072D
:104D2000F0E0EE0FFF1FE753F94F4AE069EE76E03F
:104D3000808191810E948B3449EE56E0B8018FE862
:104D400093E00E94370AB82EA92EF110BFC448E69E
:104D500058E06B2D7A2D8FE893E00E940A0A41EB10
:104D600056E0BC018FE893E00E94370A41E756E025
:104D7000BC018FE893E00E940A0A45E258E0BC01BA
:104D80008FE893E00E940A0A47E656E0BC018FE8EC
:104D900093E00E940A0A46E753E0BC018FE893E0E3
:104DA0000E94370A4AE158E0BC018FE893E00E9474
:104DB0000A0A20913C07213409F4A5C04FE356E0CC
:104DC000BC018FE893E00E940A0AE0911907F0E025
:104DD000EA59FC4F20812F3F39F447E758E0BC01E6
:104DE0008FE893E00E940A0A4CE256E0BC018FE88B
:104DF00093E00E940A0AE091C606F091C70620815E
:104E000030E00090970202C0359527950A94E2F7AA
:104E100020FD0FC0E0911907F0E0EA59FC4F208116
:104E2000211107C047E758E0BC018FE893E00E94DA
:104E30000A0A49E156E0BC018FE893E00E940A0AA1
:104E4000E091C606F091C706208130E000909702FD
:104E500002C0359527950A94E2F720FF0FC0E09134
:104E60001907F0E0EA59FC4F2081213039F447E777
:104E700058E0BC018FE893E00E940A0A45E056E042
:104E8000BC018FE893E00E940A0AE0911907F0E064
:104E9000EA59FC4F2081233039F447E758E0BC0140
:104EA0008FE893E00E940A0A4FEF55E0BC018FE8BB
:104EB00093E00E940A0A20913C072334E9F44FEE64
:104EC00055E0BC018FE893E00E940A0AE0911907BF
:104ED000F0E0EA59FC4F2081223039F447E758E0EE
:104EE000BC018FE893E00E940A0A4AEE55E0BC013B
:104EF0008FE893E00E940A0A40EE55E0BC018FE87B
:104F000093E00E940A0A2091190730E0F901EA595A
:104F1000FC4F508140913C07523061F0533031F4E6
:104F2000F901EA5AFC4F2081233021F0413409F085
:104F3000F6C009C0413439F04BE058E0BC018FE8BD
:104F400093E00E940A0A4CEB55E0BC018FE893E025
:104F50000E940A0AE0911907F0E0EA5BFC4F208109
:104F600021502E3F38F047E758E0BC018FE893E02E
:104F70000E940A0A4AEA55E0BC018FE893E00E94C9
:104F80000A0AE0911907F0E0EA5BFC4F208121302A
:104F900039F447E758E0BC018FE893E00E940A0A21
:104FA00048E955E0BC018FE893E00E940A0AE091CD
:104FB0001907F0E0EA5BFC4F2081223039F447E723
:104FC00058E0BC018FE893E00E940A0A46E855E0E9
:104FD000BC018FE893E00E940A0AE0911907F0E013
:104FE000EA5BFC4F2081233039F447E758E0BC01ED
:104FF0008FE893E00E940A0A4AE555E0BC018FE879
:1050000093E00E940A0A8C018091190790E0FC014C
:10501000EA59FC4F2081880F991FFC01EA5DFC4F83
:105020002330F9F420813181C901B4010E94AA32F0
:1050300097FF03C09195819591099F938F93C90123
:10504000B4010E94AA327F936F933F922F925F9296
:105050004F920E94D5340FB6F894DEBF0FBECDBF7D
:1050600017C08081918197FF03C01092E90610C09C
:105070009F938F934FE851E05F934F935F924F92CE
:105080000E94D5340F900F900F900F900F900F90BB
:1050900049EE56E0B8018FE893E00E94370A4AE3F0
:1050A00055E0BC018FE893E00E940A0A8C018091D0
:1050B000190790E0FC01EA59FC4F2081880F991FE5
:1050C000FC01E753F94F2330A9F480819181B401A9
:1050D0000E9496329F938F937F936F933F922F926C
:1050E0005F924F920E94D5340FB6F894DEBF0FBE88
:1050F000CDBF07C04AE069EE76E0808191810E94D1
:105100008B3449EE56E0B8018FE893E00E94370AED
:105110004AE158E0BC018FE893E00E940A0AE0915E
:10512000C606F091C706408150E00090970202C089
:10513000559547950A94E2F72091190740FD07C05D
:10514000E22FF0E0EA59FC4F30813323A1F030E048
:10515000F901EA59FC4F4081423069F0433031F4A3
:10516000F901EA5AFC4F2081233029F020913C07B5
:10517000213409F0D7C049E155E0BC018FE893E044
:105180000E940A0A8C0160911907B7E1B69FB0012D
:1051900011246D567E4F47E150E089EE96E00E9463
:1051A00098378091E90681508E3F40F449EE56E0F1
:1051B000B8018FE893E00E94370A8C0147EF54E072
:1051C000B8018FE893E00E940A0A8C0160911907E8
:1051D000E1E1E69FB00111246D577F4F44E050E0BC
:1051E000CE018F960E9498378FA58F3F09F47AC021
:1051F0009AA91F929F9399A91F929F9398A91F9272
:105200009F931F928F932BEE34E03F932F931F9227
:10521000EF925F924F920E94A53449EE56E0B8019A
:105220008FE893E00E94370A6C01D201EE2D1D92A7
:10523000EA95E9F700911907F1E1F09F8001112447
:105240000D571F4F580124E0A20EB11CC5010E944A
:10525000A8370FB6F894DEBF0FBECDBF8A3361F515
:10526000C80105960E94B0379F938F9387EE94E014
:105270009F938F931F92EF925F924F920E94A5345B
:1052800049EE56E0B6018FE893E00E94370A6C01C0
:1052900060911907B1E1B69FB001112466577F4FA5
:1052A0004AE050E089EE96E00E9498370FB6F894F5
:1052B000DEBF0FBECDBF07C04DE050E0B50189EEA7
:1052C00096E00E94983745EE54E0B6018FE893E0EF
:1052D0000E940A0A49EE56E0BC018FE893E00E9462
:1052E000370A8C014CEB54E0B8018FE893E00E9440
:1052F0000A0A8C018091190790E08D589F4F0E94F7
:10530000A837813041F44CE158E0B8018FE893E0D0
:105310000E940A0A8C014AE158E0B8018FE893E044
:105320000E940A0AA091C606B091C7062C9140912E
:10533000970230E0042E02C0359527950A94E2F7D3
:105340005091190720FD81C0252F30E02A593C4F8C
:10535000F9012081211179C044E954E0BC018FE8B2
:1053600093E00E940A0AE0911907F0E0EA5BFC4F23
:10537000208121502E3F38F047E758E0BC018FE8EC
:1053800093E00E940A0A42E854E0BC018FE893E0EF
:105390000E940A0AE0911907F0E0EA5BFC4F2081C5
:1053A000213039F447E758E0BC018FE893E00E94D0
:1053B0000A0A4EE654E0BC018FE893E00E940A0A14
:1053C000E0911907F0E0EA5BFC4F2081223039F4CC
:1053D00047E758E0BC018FE893E00E940A0A4BE3DC
:1053E00054E0BC018FE893E00E940A0A8C0180918E
:1053F000190790E0880F991F8D5D9F4F0E94B0376D
:10540000019741F44CE158E0B8018FE893E00E9425
:105410000A0A8C014EE054E0B8018FE893E00E9444
:105420000A0AE0911907F0E0EA5AFC4F2081213086
:1054300011F0273039F44CE158E0BC018FE893E0DB
:105440000E940A0A4AE158E038C12C9130E002C0BB
:10545000359527954A95E2F720FFE3C0A52FB0E0E8
:10546000AA59BC4F2C91213009F0DBC045E054E033
:10547000BC018FE893E00E940A0ABC01E091190781
:10548000F0E0EA5BFC4F80818130E9F449EE53E0C3
:105490008FE893E00E940A0A8C01E0911907F0E07E
:1054A000EA5AFC4F80814AE069EE76E090E00E9483
:1054B000783449EE56E0B8018FE893E00E94370A4D
:1054C0004AE158E02DC04AEC53E08FE893E00E9497
:1054D0000A0AE0911907F0E0EA5AFC4F20812130D6
:1054E00039F047E758E0BC018FE893E00E940A0AD0
:1054F00048EB53E0BC018FE893E00E940A0AE09178
:105500001907F0E0EA5AFC4F2081213039F447E7CF
:1055100058E0BC018FE893E00E940A0A4CEA53E08D
:10552000BC018FE893E00E940A0A20913C072434D2
:10553000D1F520919702233019F02550223098F5AB
:1055400044E853E0BC018FE893E00E940A0AE0912E
:105550001907F0E0EA5BFC4F2081213039F047E782
:1055600058E0BC018FE893E00E940A0A41E753E04B
:10557000BC018FE893E00E940A0AE0911907F0E06D
:10558000EA5BFC4F2081213039F447E758E0BC0149
:105590008FE893E00E940A0A43E653E0BC018FE8DB
:1055A00093E00E940A0AE0911907F0E0EA5BFC4FE1
:1055B0002081213009F086C041E353E0BC018FE82F
:1055C00093E00E940A0A8C018091190790E0880FED
:1055D000991F8D5D9F4F0E94B037892BF1F04AE0F3
:1055E00053E0B8018FE893E00E940A0A8C01809191
:1055F000190790E0880F991F8D5D9F4F0E94B0376B
:105600004AE069EE76E00E94783449EE56E0B8014F
:105610008FE893E00E94370A8C014AE158E0B80114
:105620004DC0E52FF0E0EA59FC4F2081233009F00E
:1056300049C043EE52E0BC018FE893E00E940A0AA1
:10564000E0911907F0E0EA5AFC4F2081233038F44A
:1056500047E758E0BC018FE893E00E940A0A4FEC4C
:1056600052E0BC018FE893E00E940A0AE09119071A
:10567000F0E0EA5AFC4F2081233039F447E758E044
:10568000BC018FE893E00E940A0A4CEB52E0BC0197
:105690008FE893E00E940A0AE0911907F0E0EA5AC5
:1056A000FC4F2081243039F447E758E0BC018FE8F3
:1056B00093E00E940A0A4FEA52E0BC018FE893E0AF
:1056C0000E940A0A4EE358E0BC010CC08091190701
:1056D00090E009AD1AAD8017910754F44DEA52E0FD
:1056E0006B2D7A2D8FE893E00E940A0AB82EA92E1E
:1056F000809119078F5F8093190746C88091010335
:1057000090910203A0910303B09104030297A105B5
:10571000B10509F0E3C54BEA52E06B2D7A2D8FE815
:1057200093E00E940A0A81E090E0A0E0B0E080935C
:10573000010390930203A0930303B09304030C941A
:105740002C192BEE31E049E166E773E0C8010E94B5
:10575000BA31882309F43CC28AE2D2011D928A95AB
:10576000E9F786E793E00E94B3335C012EEE31E067
:1057700049E169EE76E0C8010E94BA31811121C089
:1057800022EF31E04AE269EE76E0C8010E9407327A
:10579000882309F450C089EE96E00E94633287E1C5
:1057A0008A9DB0018B9D700D11246D567E4F47E18F
:1057B00050E089EE96E00E94B63781E08093F002D7
:1057C0003AC089EE96E00E94B333F501EA59FC4FE6
:1057D0007F01208130E02817390781F02FEFC501C4
:1057E0008A5B9C4FDC012C9341E050E0B5016D5B7E
:1057F0007F4F0E94B637DD24D39401C0D12C67EFD0
:1058000071E089EE96E00E942434892B89F089EEBC
:1058100096E00E94B333F701808341E050E0B50188
:105820006D597F4FC7010E94B63781E08093F00227
:10583000D110B9C1A5CF2AEF31E04AE269EE76E096
:10584000C8010E940732882309F47BC089EE96E0E4
:105850000E9463328091E9069E012E5D3F4F6901EF
:10586000811104C08FEF8FA7312C4AC08DE0D90180
:105870001D928A95E9F710921907312C80E091E189
:105880009A9D90019B9D300D11242D573F4F49014A
:10589000B4E08B0E911C7901E5E0EE0EF11CE09175
:1058A0001907D2010D900020E9F71197A95EB640C3
:1058B000F0E0EA17FB07E8F4E751F94F81112AC538
:1058C00080818A3309F035C56AE3C4010E94C0377C
:1058D0008091190790E04AE050E060E070E0865166
:1058E000994F0E94BE32C7010E94CE37F3E03F2E8F
:1058F00020C5BE01615D7F4F89EE96E00E94C90E12
:1059000081E18A9DB0018B9D700D11249B012D5763
:105910003F4F790144E050E0B901CE018F960E94DB
:10592000B637632D70E04DE050E0461B570B6C5FBF
:105930007F4F6E0D7F1DC6010E94B63781E08093B8
:10594000F0022EEF31E049E169EE76E0C8010E94F5
:10595000BA3195012D583F4F882311F061E001C005
:1059600060E0C9010E94C0372DED31E049E169EEE8
:1059700076E0C8010E94BA31882381F089EE96E072
:105980000E94B333F501EA5BFC4F808341E050E0B5
:10599000B5016D5B7F4FCF010E94B63727E731E03D
:1059A00049E169EE76E0C8010E94BA31A5014D5A7D
:1059B0005F4F7A01882369F089EE96E00E94B33345
:1059C000F501EA5AFC4F808341E050E0B701CF0176
:1059D00005C041E050E0B70180E090E00E94B6379A
:1059E00022E032E048E069EE76E0C8010E94BA3178
:1059F000882309F44CC0F501EA59FC4F8081AA0CB8
:105A0000BB1C833089F56EE270E089EE96E00E945F
:105A100019347C010097B1F0DC0113961C920196B9
:105A20000E94B333D82EF70101900020E9F7CF018F
:105A300003978E159F0539F4DD0C8D2D880F880F87
:105A4000D80E01C0D12C89EE96E00E94B333F50147
:105A5000E753F94F24E6AC01249FC001259F900D28
:105A600011248D0D911D07C089EE96E00E94B3337D
:105A7000F501E753F94F91838083F501E753F94F1F
:105A800060817181C501805090400E94CE372FEB1C
:105A900031E049E169EE76E0C8010E94BA3188231D
:105AA00009F467C086E793E00E94B3337C0126E0E7
:105AB00032E049E169EE76E0C8010E94BA3187011F
:105AC000000F111F81114BC0F701EA59FC4F808173
:105AD000833009F044C06EE270E089EE96E00E94E7
